:100000000C94D4060C941B070C941B070C94C5305D
:100010000C941B070C941B070C941B070C941B07D8
:100020000C941B070C941B070C94C6200C94022004
:100030000C942F2C0C941B070C941B070C941B077F
:100040000C941B070C941B070C941B070C941B07A8
:100050000C941B070C94C62B0C941B070C941B07C9
:100060000C941B070C941B070C941B070C941B0788
:100070000C941B070C941B070C941B070C941B0778
:100080000C941B070C941B070C941B070C941B0768
:100090000C941B070C941B070C941B070C941B0758
:1000A0000C941B070C941B070C941B07F00D0A0EF5
:1000B000110E490E5A0E650E760E870EC70ECC0E27
:1000C0001A0F1A0F1A0FD40E3D133D137613761321
:1000D000A813C413AD14AD14CF1343145514551401
:1000E000081E2F1EE41F2F1EE41F7B1E9E1EE41FF2
:1000F0009F1FAF1F06230623192319230F2319233C
:10010000192319230623062314231923192314233F
:1001100000DA0281FFD9F1DB20A4A62EAF00A0C037
:1001200000A1C800AED580A81FD300408D142000C8
:100130002077706D0A0020200041646A7573740096
:10014000526169736520004C6F77657220005157CA
:1001500045525459006C6179657220008081828318
:100160008485868788898A8B8C8D8E8F90919293D7
:1001700094A0A1A2A3A4A5A6A7A8A9AAABACADAE22
:10018000AFB0B1B2B3B4C0C1C2C3C4C5C6C7C8C999
:10019000CACBCCCDCECFD0D1D2D3D400FD377A5874
:1001A0005A000004E6D6B446020021011600000001
:1001B000742FE5A3E0064C01745D003D8889C654A8
:1001C00036C3174FE4E20F535D9075DB08C965CE67
:1001D00009CBAEF2FFD16E9644531750A9573CF3AA
:1001E0001C36AD768D7A7A850BC9433E38EE515A6E
:1001F0003E9C7DCEB4C813B9F1CF8867CEB8A9BFF5
:1002000034EAE3499914A741D5576A229C4F076500
:10021000976DEDE65205C276003360F788AF8348EC
:10022000607DF4FD32CB5CB4A3130FA779664A7AE4
:10023000762F3B30DDCAA3AAFD617C0E3B1587C338
:100240007683075D3BDD124776E5A83D1F79BCA9A3
:10025000EAD200281FB159F012878D588EB0E9D527
:10026000FFF4E903A04E8AAB492B16A40CD6DB267B
:10027000072A60542BABFF81864810D3DE5CC6B9D9
:10028000BB689DF8152AF17BB847E73BB48E1DC9C2
:1002900099D80C800D5362FBA3A7CA47DAC48DA579
:1002A000D400E4E0B68391325BF0EB51EC52FD8E6A
:1002B0009BB38F250193C9BC947B21E4566C70AC31
:1002C0006CB467BE90C3051B3CFACA8FFFE25F7532
:1002D000AE5447B4D69F9A818794D2DACD7AEADDBC
:1002E00078DB2FC7E80BF51BCE9ACCB42C306051CD
:1002F0008FCE2A3EAF2FC1B9CEB63CBC2DA05B0736
:10030000B269C9BE4949362F746A9153406AA84EF2
:10031000C9F7D5077811EE544B0F06B146D37A557D
:10032000589EB61BC8A9D8763949B6F1F2B5FC007B
:100330000C465A652014272C00019003CD0C0000B8
:10034000F177AE14B1C467FB020000000004595AF3
:10035000000000000000000000000000000000009D
:10036000000000000000000000000000000000008D
:10037000000000007E0F00D4FFFFFFC700000078E0
:1003800000000000000000002A2B280000000000F0
:100390000000000000000000000000290000000034
:1003A0002C1E3420212224342627252E362D3738A2
:1003B000271E1F202122232425263333362E3738AB
:1003C0001F0405060708090A0B0C0D0E0F10111269
:1003D000131415161718191A1B1C1D2F3130232D35
:1003E000350405060708090A0B0C0D0E0F10111233
:1003F000131415161718191A1B1C1D2F3130354CE4
:1004000005010902A10185020901A10005091901DF
:1004100029051500250195057501810295017503D2
:1004200081010501093009311581257F9502750883
:10043000810609381581257F950175088106050C0F
:100440000A38021581257F950175088106C0C0050F
:10045000010980A101850319012AB700150126B7FA
:1004600000950175108100C0050C0901A1018504EA
:1004700019012AA002150126A0029501751081001C
:10048000C00660FF0961A1010962150026FF009501
:1004900020750881020963150026FF009520750864
:1004A0009102C005010906A101050719E029E71518
:1004B00000250195087501810295017508810105E6
:1004C00007190029FF150026FF0095067508810011
:1004D0000508190129059505750191029501750316
:1004E0009101C009025B00030100A0FA09040000A9
:1004F000010301010009211101000122400007054B
:10050000810308000A090401000203000000092118
:1005100011010001222200070582032000010705C6
:100520000303200001090402000103000000092167
:10053000110100012281000705840320000A120135
:10054000000200000008D8042DEB000101020301A5
:100550001C037600690061006C003A0066003600FA
:1005600034006300320062003300630000000E03B9
:100570004C0069006C007900350038000000100361
:100580006C0069006C00690075006D00730000006C
:10059000040309040000000000003E5B4F5B3E00C6
:1005A0003E6B4F6B3E001C3E7C3E1C00183C7E3C6C
:1005B00018001C577D571C001C5E7F5E1C00001835
:1005C0003C180000FFE7C3E7FF00001824180000F4
:1005D000FFE7DBE7FF0030483A060E0026297929BD
:1005E0002600407F05050700407F05253F005A3C57
:1005F000E73C5A007F3E1C1C0800081C1C3E7F0084
:1006000014227F2214005F5F005F5F0006097F01F4
:100610007F00006689956A0060606060600094A257
:10062000FFA2940008047E04080010207E20100021
:1006300008082A1C0800081C2A0808001E101010B0
:1006400010000C1E0C1E0C0030383E383000060E18
:100650003E0E060000000000000000005F000000E9
:10066000000700070000147F147F1400242A7F2A4B
:100670001200231308646200364956205000000817
:1006800007030000001C224100000041221C000062
:100690002A1C7F1C2A0008083E08080000807030D1
:1006A0000000080808080800000060600000201032
:1006B000080402003E5149453E0000427F400000D0
:1006C0007249494946002141494D33001814127FAF
:1006D00010002745454539003C4A49493100412130
:1006E00011090700364949493600464949291E0083
:1006F0000000140000000040340000000008142234
:1007000041001414141414000041221408000201C2
:10071000590906003E415D594E007C1211127C00C1
:100720007F49494936003E41414122007F414141D4
:100730003E007F49494941007F09090901003E41C6
:10074000415173007F0808087F0000417F4100008D
:100750002040413F01007F08142241007F4040407B
:1007600040007F021C027F007F0408107F003E4192
:1007700041413E007F09090906003E4151215E00CA
:100780007F091929460026494949320003017F01A2
:1007900003003F4040403F001F2040201F003F40DB
:1007A00038403F0063140814630003047804030016
:1007B0006159494D4300007F414141000204081046
:1007C0002000004141417F0004020102040040403A
:1007D00040404000000307080000205454784000C7
:1007E0007F2844443800384444442800384444288E
:1007F0007F0038545454180000087E090200182461
:10080000241C78007F080404780000447D40000028
:100810002040403D00007F102844000000417F4000
:1008200000007C04780478007C08040478003844D4
:10083000444438007C1824241800182424187C0010
:100840007C080404080048545454240004043F4421
:1008500024003C4040207C001C2040201C003C40E8
:1008600030403C004428102844004C9090907C007C
:100870004464544C440000083641000000007700F6
:1008800000000041360800000201020402003C267C
:1008900023263C00000000000080808080000000D3
:1008A000000080E070180C1830E080000010F89014
:1008B0001030783010B8FC3810000000000000F84C
:1008C000FCF8000000000000000000000000001C18
:1008D0009C1C00000000F8FCF80000000000001C58
:1008E000FCF8C000000000000080E0F87C1C000064
:1008F00000F0FCFCFC1C1C1C1C1C1C1C1C00000034
:10090000000000C0F0F8381C1C1C1C1C1C3CF8F03B
:10091000E000E0F0F0F0E0ECEEF7F37020007C7C1B
:100920007C7E007E7E7E7F7F7F000080C0E07E5BDD
:100930004F5BFEC00000C000DCD7DEDEDED7DC008F
:10094000C0000000000000000000000000000000E7
:100950000000000000000000000FBCE081818183E6
:100960008382870C183060C000001FFE90B9FFBB67
:1009700091983C1811133F1100000000000000FF87
:10098000FFFF00000000000000000000000000FF6A
:10099000FFFF00000000FFFFFF000000000000005C
:1009A00000030F7FF8E080F0FC3F0F010000000023
:1009B000003F3F3F1C1C1C1C1C3C78F8F0E08000F2
:1009C000000000C3E7FF7E3C3878787070F8FFDFE6
:1009D00087000F1F3F7F7F7F7F7F3F1E0C001F1F01
:1009E0001F3F003F3F3F7F7F7F00307B7F7830207D
:1009F0002030787F3B0003000F7F0F0F0F7F0F0029
:100A000003000000000000000000000000000000E3
:100A100000000000183C24666341C1818080808012
:100A2000808081C14162386C4CC681818080808029
:100A30008081C14362361C1800000000000000FFE6
:100A4000FFFFC0C0C0C0C0C0C0C0C0800000007FE9
:100A5000FF7F000000007FFFFFC080000000E0E09B
:100A6000C0C0C0E0F97F1F070000000000000000C8
:100A70000070F0E0E0C0C0C0C0E0F0F87F3F0F00C1
:100A800000000F3F7FF9E0E0C0C0C0C0C0E0F97FC8
:100A90003F1F0000000000000000000000000000F8
:100AA0000000000000000000000000000000000046
:100AB0000000000000000000000000000000000036
:100AC0000000000000000000000000000000000026
:100AD0000000000029001E001F002000210022004D
:100AE0002B0014001A00080015001700E000040095
:100AF0001600070009000A00E1001D001B000600A7
:100B00001900050000000151E300E2002C002F0055
:100B10003500270026002500240023002D001300A7
:100B200012000C0018001C00340033000F000E00EF
:100B30000D000B00E50038003700360010001100F2
:100B400000000251E7002A002800300001000100E7
:100B5000010001000100010001001E021F0220022D
:100B60002102220201001E001F002000210022009D
:100B7000010001000100010001000100000001006E
:100B8000010001000100010001000100010001005D
:100B9000010001000100270226022502240223028F
:100BA0000100270026002500240023000100300258
:100BB0002F022E0235003102000001000100010069
:100BC000010001000100010001000100010001001D
:100BD0003A003B003C003D003E003F0001000100A8
:100BE00001000100010001000100010001000100FD
:100BF00001000100000001000100010001000100EE
:100C00000100010001000100010001004500440055
:100C1000430042004100400000004F0052005100DC
:100C2000500000000100310030002F002E002E0285
:100C300000000100010001000100010000000000AF
:100C400000000000000000000000000000000000A4
:100C50000000000000000000000000000000000094
:100C60000000000000000000000000000000010083
:100C70000100010001000000000000000000000071
:100C80000000000000000000000000000000000064
:100C90000000000000000000000000000000000054
:100CA0000000000000000000000001000100010041
:100CB0000100000000000000000000000000000033
:100CC0000000000000000000000000000000000024
:100CD0000000000000000000000000000000000014
:100CE0000000000000000100010001000100000000
:100CF00000000000000000000000000000000000F4
:100D000000000000000000000000000000000000E3
:100D100000000000000000000000000000000000D3
:100D200000000100010001000100000000000000BF
:100D300000000000000000000000000000000000B3
:100D400000000000000000000000000000000000A3
:100D50000000000000000000000000000000010092
:100D60000100010001000000000000000000000080
:100D70000000000000000000000000000000000073
:100D80000000000000000000000000000000000063
:100D90000000000000000000000001000100010050
:100DA0000100000000AF00AE11241FBECFEFDAE05B
:100DB000DEBFCDBF04B603FE27C08091A805909189
:100DC000A905A091AA05B091AB058730904BA7402B
:100DD000B04BD1F41092A8051092A9051092AA0563
:100DE0001092AB0514BE84B7877F84BF0FB6F8940A
:100DF000A8958091600088618093600010926000E7
:100E00000FBEE0E0F8E3099511E0A0E0B1E0E8EA08
:100E1000FCE602C005900D92AC3CB107D9F725E085
:100E2000ACECB1E001C01D92A83AB207E1F70E9414
:100E30001D070C9452360C940000CF93DF93CDB76E
:100E4000DEB7EC970FB6F894DEBF0FBECDBF84B708
:100E5000877F84BF0FB6F894A89580916000886161
:100E600080936000109260000FBE90E080E80FB6A3
:100E7000F89480936100909361000FBE85B78068FD
:100E800085BF85B7806885BF86E195E19093CD01E8
:100E90008093CC010E9492260E9446200E946520E9
:100EA0008091E20084608093E20078948091B702A0
:100EB0008823A1F01091E9001F709091EC00892F18
:100EC000817090FD80E8182B1092E9008091E80075
:100ED00083FD0E941E1D1F701093E90082E084BDF7
:100EE00093E095BD9AEF97BD80936E001092CE016E
:100EF0001092CF011092D0011092D1010E941527BB
:100F0000811102C00E9406270E947F168093000173
:100F10000E947F1681110E947F3080910001809194
:100F20000001882311F090E001C095E09093DF016B
:100F300085E0891B8093DE0101E611E0D8018D91E7
:100F40008D018F3F11F00E940717B1E006361B0795
:100F5000A9F70BE611E0F80181918F018F3F11F0A5
:100F60000E940717F1E001371F07A9F78AE0E6E2C0
:100F7000F2E0DF01282F1D922A95E9F7E4EDF1E078
:100F8000DF011D928A95E9F780E090E00E947932B6
:100F90008A3E9E4F21F40E941527811102C00E94B3
:100FA000F41882E090E00E9471328093170284E08E
:100FB00090E00E947132182F82E290E00E9471321C
:100FC000212F30E0382B3093D3012093D2010E949F
:100FD0007C19EFE3FCE93197F1F700C000000E94B3
:100FE0007C198091260280FF08C06FEF7FEF80E0C0
:100FF00090E00E949D320E94B52B83E090E00E9419
:1010000071320E9426250E947F16811102C00E9423
:1010100082300E947F16811102C082E001C080E010
:101020008093120280E88093B9020E94132F6DE032
:1010300070E083E291E00E94F51C892B09F043C027
:101040008091120263E070E081FD3AC080E291E09D
:101050000E94F51C892BB9F56DE070E080E191E00C
:101060000E94F51C892B79F50E94172CDC01CB011D
:10107000805A9541AF4FBF4F809336059093370507
:10108000A0933805B0933905ECEBF2E080E092E0F4
:10109000DF019C011D9221503040E1F7F093C30421
:1010A000E093C2048FEF9FEF9093BB028093BA024C
:1010B00081E080933B0580933A051092130203C0B0
:1010C0008DE191E0C5CF85988D9A84988C9A8FB1E7
:1010D00085FB882780F97C9B02C092E001C090E0EC
:1010E000892B8093E5019091000181E098279093EE
:1010F000E401891B8093E00181E091E090939D05DC
:1011000080939C0522242394312CBE016F5F7F4F76
:101110002B018091B702853009F048C000E112E14F
:101120008091B702853009F03BC08091B7028430CE
:1011300031F10E94772D1092A00588E190E0A0E4A3
:101140000FB6F894A895809360000FBEA09360003E
:1011500083B7817F846083BF83B7816083BF7894C6
:10116000889583B78E7F83BF0FB6F894A89580913A
:101170006000886180936000109260000FBE8091D3
:10118000AD02882309F4CCCF0E947C19E6E2F2E09C
:101190008191811153C6B2E0E033FB07C9F7C0CF9C
:1011A0001092A1020E942A250E94842C0E947C1980
:1011B000C82E81110E94172CE6E2F2E0F8AFEFABE7
:1011C000E8E1F2E0A6E2B2E000E010E0B02EDD904F
:1011D00081918D25D1F1E12CFF24F394982F9F214B
:1011E00079F10E947F16882399F0EBA6BCA6DF2038
:1011F00081E009F480E08DA70E94232C8160782F84
:101200009FA78EA74BA55CA56DA58FA50E94FC0F7F
:10121000F801E85EFD4F8081F826F0828091E501BB
:10122000E82FEE0FEE0FE093E5018FB185FB8827E5
:1012300080F98DAB1EAA7C9B1FC082E090E01EC08F
:10124000E394FF0C26E0E212C9CF0F5F1F4F0A3074
:10125000110509F0BBCF8FEF88AB89AB1AAA0E94AA
:10126000232C8160782F9CAB8BAB48A959A96AA924
:101270008CA90E94FC0FD2CF80E090E06DA97EA9DE
:10128000862B972B8E2B8093E5011091E4018F70B4
:10129000E82FF0E0EF58FE4F90818091E301890F35
:1012A0008093E301823074F0E12FF0E0EF51FE4FC4
:1012B00080818F5F808360E0812F0E944F29DD2431
:1012C000D39401C0D12C8091E3018F3F6CF4E12FC6
:1012D000F0E0EF51FE4F80818150808361E0812FEB
:1012E0000E944F29DD24D3948091E301082E000C45
:1012F000990B62E070E00E94C7328093E301D11045
:101300000E949C1880913B05882309F475C1809147
:101310001402909115020E94082CC29708F469C02B
:101320000E94232C90931502809314028CEB92E080
:101330009093C3048093C2040E947F16882309F40B
:1013400054C085E591E00E94C41C8091B8020E94BF
:10135000A610813059F038F0823069F0833071F492
:1013600089E391E005C08EE491E002C087E491E05A
:101370000E94C41C19C080E491E0FACF1F928F93A1
:1013800082E591E09F938F938BEE91E09F938F93F3
:101390000E9468338BEE91E00E94D21C0F900F9058
:1013A0000F900F900F900F9086E391E00E94C41C65
:1013B0008091E6011F928F938CE591E09F938F932C
:1013C00087EE91E09F938F930E94683387EE91E0C0
:1013D0000E94D21C80E391E00E94C41C0F900F90E9
:1013E0000F900F900F900F9004C08CE591E00E9439
:1013F000C41C80913B05882309F4E3C02091BA0204
:101400003091BB022115310509F4DBC08091130234
:101410008111D7C0682E712CEE24E394F12C082E94
:1014200002C0EE0CFF1C0A94E2F7A9014E215F21D5
:10143000452B11F48F5FEECF90911202930105E0DE
:10144000220F331F0A95E1F790FD12C08295880F95
:10145000807680930F01220F232F221F330B3195AB
:1014600020931201815E809310011092130112C02B
:10147000B5E036952795BA95E1F7220F220F220F96
:1014800020930F0110921201295F2093100183E035
:101490008093130124E630E047E050E06DE071E016
:1014A00088E70E94CA2F892B09F08BC08091120215
:1014B00080FD23C0C301A5E0880F991FAA95E1F71D
:1014C000AC0144545D4F04E610E020E230E060E4FB
:1014D00088E70E94F12F892B09F073C00E94912D9B
:1014E000E094F0948091BA029091BB02E822F92234
:1014F000F092BB02E092BA0264C080E2E2EFF1E057
:10150000DF011D928A95E9F7F5E0660C771CFA95E4
:10151000E1F7E5E8F1E0FCAFEBAF41E851E0ABAD5E
:10152000BCAD8D91BCAFABAFFA019191AF0193010E
:10153000290F311DB90164547D4F7AAF69AF90E036
:101540008E509E4FFC0177E09F01281B390B01E074
:1015500001C0000F2A95EAF789AC9AAC10E0D401DB
:101560006D914D016023272F211B2770B22E022E73
:10157000000C330BB62F01C0BB0FBA94EAF7BB2E99
:101580003195219531092770332701C066952A9539
:10159000EAF7B62A6081B62AB0821F5F1830F9F6E2
:1015A000715031967F3F81F6EBADFCADE958F140CB
:1015B00009F0B5CF04E610E020E230E042EF51E060
:1015C00086CF80913A058823B9F00E94172C0091AC
:1015D0003605109137052091380530913905DC0129
:1015E000CB01801B910BA20BB30B8F3F9F4FAF4FD3
:1015F000BF4710F40E94772DC11001C0D1100E9486
:10160000912D86E0EBE1F5E0D20101900D928A95F3
:10161000E1F7E0901D05F0901E0500911F05109167
:10162000200510921D0510921E0510921F051092A4
:101630002005E11003C0FF2009F451C08091190575
:1016400090911A050E94082C9C01909115059923F0
:1016500009F415C42333310508F441C09F3F19F044
:101660009F5F90931505EE2061F00E94D5271E1410
:1016700014F491E001C09FEF899F802D1124809385
:101680001D05FF2061F00E94D5271F1414F491E07E
:1016900001C09FEF899F802D112480931E053091FA
:1016A0001D053323E1F020911E052223C1F045EBF7
:1016B0003403C0011124992319F090931D0503C030
:1016C00081E080931D0565EB2603C0011124992359
:1016D00019F090931E0503C081E080931E0501114F
:1016E00003C0112309F451C080911705909118058A
:1016F0000E94082C9C0190911405992309F4C4C3FD
:101700002536310508F441C09F3F19F09F5F909343
:101710001405002361F00E94B327101614F491E021
:1017200001C09FEF899F802D112480931F051123F5
:1017300061F00E94B327111614F491E001C09FEFED
:10174000899F802D11248093200530911F0533231C
:10175000E1F0209120052223C1F075EB3703C00191
:101760001124992319F090931F0503C081E0809301
:101770001F0535EB2303C0011124992319F0909321
:10178000200503C081E08093200580911D05811113
:101790000BC080911E05811107C080911F0581112A
:1017A00003C08091200581110E94582AEB82FC829F
:1017B0000D831E8386E0F201ABE1B5E001900D924E
:1017C0008A95E1F70E94842C90911602891721F0E6
:1017D0000E94842C809316028091B702843009F015
:1017E00098CC83E08093E9008091E80082FF91CC5F
:1017F0008091E80085FF1FC00E949D21811119C0C2
:1018000000E210E0720108C08091F100D7018D93D1
:101810007D010150110969F08091E80085FDF4CF48
:101820008091E8008B778093E8000E949D218823B7
:1018300099F391E001C090E08091E8008B7780936C
:10184000E800992309F465CC009134051091350521
:1018500089810115110561F08E3F09F0EBC28A8183
:10186000833008F4B1C18550833008F0E3C2ACC1C5
:101870008B3009F493C108F5853009F46EC0A8F4E3
:101880008230B9F130F4813009F0D2C21A8289E095
:101890007CC2833009F452C0843009F0C9C24C8143
:1018A0006B818A810E9464261FC2873009F4C0C2FE
:1018B00008F0BEC20E94472EBDC2803109F4B4C0F8
:1018C00060F48D3009F456C008F452C08E3009F42B
:1018D00055C08F3009F47BC0ABC2823109F4AAC075
:1018E00008F4A5C0833109F4CDC08E3F09F46CC162
:1018F0009FC28A81823009F4B9C2833051F08130AD
:1019000009F096C20E94172C9B838C837D836E8383
:1019100091C28091300590913105892B09F48AC2DA
:10192000FE013396CE010D96AFA9B8AD2D91B8AF9B
:10193000AFAB2193E817F907B9F77CC28A818230EF
:1019400009F076C26B817C818D819E810E94223359
:1019500086E290E00E947F326DC22D813E81322767
:10196000232732274C816B818A810E942E2662C2F6
:1019700080E15EC082E08A8381E307C20A811B8125
:10198000102701271027CC80D12CBDE1CB16D10424
:1019900008F050C27201C80181539E4F970124196B
:1019A00035092C153D0508F045C20133E2E01E075C
:1019B00030F40E947132D70114968C9302C0F70163
:1019C00014820F5F1F4FFFEFEF1AFF0AE4CF8091E1
:1019D000300590913105892B09F42CC20A811B81B5
:1019E000102701271027EC80F12C2DE1E216F104DD
:1019F00008F020C26201C80181539E4F960124194C
:101A000035092E153F0508F015C2013332E01307E2
:101A100028F4D60114966C910E947F320F5F1F4FFD
:101A2000BFEFCB1ADB0AE7CF0E94CE2D03C283E0C3
:101A30008A8300C20A811B81102701271027CC80CE
:101A4000D12CEDE1CE16D10408F0F4C17201C80129
:101A500087969701241935092C153D0508F0EAC130
:101A60000836F1E01F0730F40E947132D701149656
:101A70008C9302C0F70114820F5F1F4FFFEFEF1A24
:101A8000FF0AE5CF0A811B81102701271027CC8090
:101A9000D12C2DE1C216D10408F0CCC1480137E2A7
:101AA000830E911C083641E0140708F0C3C188E694
:101AB00091E0801B910B8C159D0508F4BBC18091B2
:101AC000300590913105892B11F072015EC000FF45
:101AD0000FC0C80186960E94713290E0982F882727
:101AE0002D81822B81159C4531F48FEF8D8303C0AE
:101AF000E12CF12C03C0EE24E394F12CC8018C0DF1
:101B00009D1D560180FF1BC071E0A71AB10855E06A
:101B1000652E712C6C0E7D1E6A0C7B1CC4018C0D15
:101B20009D1D0E947132D3012C9130E0322F22276B
:101B3000282B21153C4519F48FEFF3018083F20126
:101B4000EE0DFF1D2FEFCF01841995098A159B0516
:101B500008F0BBCF848190E0982F88273581832BB4
:101B600081159C4511F4248325833296ECCF0836E9
:101B700041E0140728F4D70114966C910E947F323B
:101B80000F5F1F4FBFEFEB1AFB0AC8018796970143
:101B9000241935092C153D0550F34CC180913005B1
:101BA00090913105892B09F445C1C2010E94FC21A5
:101BB000EFEFF1EE24E0E150F0402040E1F700C00B
:101BC00000000E94B52B36C1EA818E2F90E08E3046
:101BD000910508F02FC1FC01EA5AFF4F0C941C3309
:101BE00088E0EAE4F1E0DE01919601900D928A9599
:101BF000E1F780E2D2011D928A95E9F784E08983BA
:101C000088E0FE01B196DE01159601900D928A954D
:101C1000E1F710C184EB898381E08A831B821C82F7
:101C200009C18C8190E0982F88272B81820F911D0C
:101C3000092E000CAA0BBB0B35E0880F991FAA1FB9
:101C4000BB1F3A95D1F7AC01BD01405E5F4F6F4FAE
:101C50007F4F481759076A077B0708F4EBC0843B9E
:101C6000E1E09E07A105B10508F0E4C0453BF1E0C5
:101C70005F076105710520F044EB51E060E070E022
:101C8000481B590BBC0164567E4FC2010E9458325A
:101C9000D1C01B810C8140E0602F812F0E94E32E78
:101CA00099838A8341E0602F812F0E94E32E9B83DA
:101CB0008C83C0C02E813F813227232732274D815C
:101CC0006C818B810E940F2EB5C040E250E06FEF17
:101CD00070E0C2010E9461338091300589830A83DC
:101CE00084E08B838C8399E09D83C7C03092350557
:101CF0002092340582E390E09093250280932402A1
:101D00000E94232C909323028093220293C0012BE4
:101D1000A1F110912F021295117080912A028295E3
:101D20008170182380912202909123020E94082C36
:101D300085369105E0F01123D1F00E94232C909379
:101D40002302809322028091240290912502019720
:101D50009093250280932402892B79F41092350503
:101D600010923405309231052092300506C082E38E
:101D700090E090932502809324028091300589831E
:101D8000809134058A83809124028B8353C0109202
:101D90003105109230054EC040E250E06FEF70E028
:101DA000C2010E94613346C08B81813059F018F026
:101DB0008230F9F03FC080E2D2011D928A95E9F7A6
:101DC00084E037C08C819AE0F92E8E010F5D1F4FA1
:101DD000F8012F2D11922A95E9F7B8010E94FA2DEA
:101DE0008983F801DE01129601900D92FA94E1F7D1
:101DF00021C06C818AE0FE013596DE01919601904A
:101E00000D928A95E1F7643070F43AE0639FB00177
:101E1000112469557E4F4AE050E0CE0181960E9420
:101E2000A33280E001C08FEF89830E94922602C016
:101E30008FEF8983C2010E94FC216BC909BD19BDC6
:101E400009B400FEFDCF8091D8008F7D8093D8002B
:101E50008091E00082608093E0008091E00081FD4D
:101E6000FCCF1092A1020E942A255AC986E290E076
:101E70000E9471321B821C821D828E83DBCF2D3229
:101E8000314008F0EDCB2BCC2D32314008F03ECC68
:101E90007CCCAF92BF92CF92DF92EF92FF920F93E2
:101EA0001F93CF93DF93EC018AE0A82E2881222391
:101EB00009F497C0213009F041C08981813039F49B
:101EC0008E010E5F1F4F8A810E94102608C082304B
:101ED00041F48E010E5F1F4F8A810E949125E80117
:101EE0007EC0833039F48E010E5F1F4F8A810E94BD
:101EF0005925F5CF843011F0219671C02A812296A0
:101F000080E090E030E0205331092A30310558F468
:101F1000A89EA001A99E500D1124C901840F951FF0
:101F200021962881EFCF009709F459C0EFE9FFE02F
:101F30003197F1F700C000000197F5CFE22FF0E0F4
:101F4000E058FC4FB490822F86958695869590E058
:101F5000FC01E059FC4FE4902770F12C022E02C0E6
:101F6000F594E7940A94E2F7F1E0EF22FF24FC01F4
:101F7000E05AFC4FC490D12C022E02C0D594C794D5
:101F80000A94E2F731E0C322DD24FC01E05BFC4F60
:101F9000049110E002C0159507952A95E2F70170AB
:101FA0001127E114F10419F081EE0E949125C1146A
:101FB000D10419F086EE0E9491258B2D0E941026E7
:101FC000CD2819F086EE0E945925EF2819F081EEF0
:101FD0000E945925012B19F08CE20E9410262196AF
:101FE00065CFDF91CF911F910F91FF90EF90DF9020
:101FF000CF90BF90AF9008951F93CF93DF93CDB74D
:10200000DEB767970FB6F894DEBF0FBECDBF4B8B20
:102010005C8B6D8B7E8B8F8B611110923F0586E000
:102020009E01235F3F4FD901E82F1D92EA95E9F702
:1020300095E0FE017396D90101900D929A95E1F712
:102040009C894E895F897B897D879E876F87598BA5
:10205000488BF901DE01179601900D928A95E1F700
:10206000CE0107960E941D2381113EC086E0FE012D
:102070003796DE01119601900D928A95E1F7FF8166
:10208000E8856A857B856115710531F0EF3F31F494
:1020900081E0FF3F19F403C081E001C080E080FDD2
:1020A00023C02091E20430E0C9010196877099278E
:1020B0004091130550E08417950779F1F983EA837D
:1020C0007D836C8396E0929FD001939FB00D112485
:1020D000AD51BB4FFE01319601900D929A95E1F7FB
:1020E0008093E2040E943F2216E0809113059091B4
:1020F000E204891709F1189FC00111248D519B4FEB
:102100000E941D238823C1F08091130590E0019661
:102110008770992780931305E8CF1092A1020E943F
:102120002A251092E20410921305ECEDF4E086E00B
:10213000DF011D928A95E9F767960FB6F894DEBF26
:102140000FBECDBFDF91CF911F910895982F92952B
:102150009F7019F0892F24E001C020E0982F9695F8
:10216000969511F02E5F892F982F969509F02F5F85
:10217000822F08959C013A9521153F4130F5BC010D
:1021800066277270AC01442754709C012227387076
:1021900094FF0FC090FF02C080E101C080E0672B78
:1021A00009F08062452B09F08064232B79F0806868
:1021B0000895892F8170672B09F08260452B09F003
:1021C0008460232B19F08860089580E008958F9231
:1021D0009F92AF92BF92CF92DF92EF92FF920F93B6
:1021E0001F93CF93DF93CDB7DEB729970FB6F8943F
:1021F000DEBF0FBECDBFFC01808191812381348180
:10220000232B31F09F3F31F491E08F3F19F403C04D
:1022100091E001C090E090FDF6C37F0185E0DE0112
:10222000119601900D928A95E1F7D70112962C91A3
:1022300089819A81222349F00E94B522182F682FA4
:1022400089819A810E94D62403C00E94A624182F57
:1022500069817A81812F0E94DE2D8C01F7018281B4
:10226000882329F1C80190568115F0E29F0748F0B4
:10227000905E811520E1920720F0915C81159F41CD
:1022800018F4C801992708C00F3F110509F010F490
:10229000C80102C080E090E09C0124503109243242
:1022A000310508F4CEC08B970E9708F4CAC0D70149
:1022B00012968C91811105C0F701828181113EC077
:1022C00054C380911401909115010196A9F322E461
:1022D000C22E25E0D22EA12CB12C9924939480916A
:1022E0001401909115018A159B0534F3D6011696B9
:1022F0008C9116978823D9F019968D919C911A97F5
:102300000817190739F48091400590914105081785
:10231000190769F0F601978614870387C6010E94A2
:10232000DF2CC60106960E94942C10923F05FFEF09
:10233000AF1ABF0A26E1C20ED11CD1CFC80182510B
:102340009F45409708F086C08FEF93E00E9471325E
:10235000811159C39EEEF92EF00E0FEC11E0FF2013
:1023600071F0011544E0140709F44DC3C8010E943F
:102370007132811101C0FA940F5F1F4FF0CF1E829E
:102380001F8218861986CC24CA9478015FEFE51A5B
:10239000F50AC8010E9471328E831F82882309F4D6
:1023A00032C3813009F048C0580182E0A80EB11C48
:1023B000C7010E9471328F83882309F424C39FEFE1
:1023C000980F933060F4780193E0E90EF11CC50199
:1023D0000E947132888781112FC08701D6CF843047
:1023E00011F07501FACFC5010E947132D82E780123
:1023F000A4E0EA0EF11CC80103960E947132DD20B0
:1024000009F401C3882309F4FEC2282F30E02150CB
:102410003109C29EA001C39E500D11248D2D90E064
:102420000197840F951F0197C0F2EFE9FFE0319704
:10243000F1F700C00000F7CFCE0106960E94490FC9
:10244000CCCFE0914502F0E0E65BFD4F80818F5FED
:1024500080832DCF0031BFE51B0711F481E005C05B
:102460000131EFE51E07B1F482E00E941B250E94B6
:10247000EA1CC9C26801F7E5DF1A2FEFC216D104C2
:1024800009F040F466E275E08C2D0E94FA2D892B4C
:1024900009F47AC2C80197558F3F910511F008F0F1
:1024A00052C020911401309115012817390724F4E6
:1024B0009093150180931401F701228136E1389F32
:1024C0005001399FB00C1124A5014E5B5A4F6A018F
:1024D000DA0150962C935097928116968C9116970C
:1024E000992331F11A961C930E9319978F5F1696C4
:1024F0008C930E94232CF6019687858717829091F2
:102500003F058091A102892B80870190F081E02D09
:10251000309749F0D60154966D917C915597C5013D
:10252000885B9A4F099510934105009340050BC0B5
:10253000882349F0FA018189882329F0C501885B45
:102540009A4F0E94942C033FFCE51F0759F190F429
:10255000083D4CE51407E9F0093D5CE51507A1F1DC
:10256000073D8CE51807B1F506E221EE41EE67ED77
:102570007CE514C0053F9CE5190701F1C8F0063F52
:10258000BCE51B0739F507E225EE46EE66EF7CE574
:1025900005C007E225EE45EE68ED7CE5C7010E9427
:1025A000042D31C206E221EE40EE63EF7CE5F6CF6A
:1025B00007E225EE44EE64EF7CE5F0CF06E221EE83
:1025C00042EE65EF7CE5EACF08E221E045EE69EDF9
:1025D0007CE5E4CFF70182818823E1F010923E058B
:1025E0000115FCE51F0731F00E3D1C4599F40E94D2
:1025F000F41809C21092A1020E942A254FEF54E359
:102600008CE0415050408040E1F700C000000E9443
:10261000B52BF9C1D7010D911C91882349F0C80150
:102620000E94B522D82E682FC8010E94D62404C06B
:10263000C8010E94A624D82EB8018D2D0E94DE2D3F
:102640000E941E17082FD82ED70112962C91129790
:1026500015964C91342F32953F70C92EC2948FE05D
:10266000C8228C2C912CBCE08B16910408F075C10B
:10267000F401EC59FF4F0C941C33892F807F9F701D
:10268000192F882311F01295107F2223B9F01123FE
:1026900009F44FC180E2800F883010F0D11006C0DD
:1026A0009091A102192B1093A10205C090913F05B2
:1026B000192B10933F050E9465193BC1802F0E9482
:1026C0005925112309F449C1005E083010F0D110DA
:1026D00004C0812F0E945E1906C0109590913F059D
:1026E000192310933F050E94651937C1592F507F58
:1026F000892F8F70503211F08295807FE1E0DE12D9
:102700000AC0222321F0363008F027C10EC0353030
:1027100008F023C11AC0222359F0332331F040FFBF
:1027200008C14F70D70115964C930E944F2515C1D3
:10273000332359F0093309F00DC1BFEFE7EEF3E0A1
:10274000B150E040F040E1F703C10E94482505C1C7
:10275000892F86958695837019F0813059F0FDC0D8
:10276000222319F0802F937002C080E090E00E9435
:102770006E2C49C1222319F0802F937002C080E093
:1027800090E00E94582C3FC1802F222319F00E9414
:10279000F52702C00E942E270E94582A34C1892F93
:1027A0008370A9F52111DEC0802F829586958770F0
:1027B000880F880F202F2F70082E01C0220F0A9437
:1027C000EAF704FF09C04FE050E001C0440F8A95CA
:1027D000EAF7842F809501C080E096959695492F61
:1027E0004370423069F088F490912105413019F02E
:1027F000822B892302C0922B892B0E942625B2C0EE
:10280000822B909121058927F8CF822BF6CF2223A6
:1028100019F0892F817001C08695882309F4A2C020
:10282000802F829586958770880F880F202F2F70B4
:10283000082E01C0220F0A94EAF704FF09C04FE0F6
:1028400050E001C0440F8A95EAF7842F809501C0BB
:1028500080E096959695492F4370423059F078F470
:102860009091B802413019F0822B892309C0922B34
:10287000892B06C0822B9091B802892701C0822B38
:102880000E9404256FC0192F1F70222339F0812F59
:102890000E941B25802F0E944F2564C0802F0E941C
:1028A0004825812F0E940F255DC0802F41EF04171E
:1028B00009F1401720F050EF051741F036C0A2EFA4
:1028C0000A17F9F0B3EF0B1719F12FC0222379F093
:1028D000353008F042C0292F2F7181E090E001C00F
:1028E000880F2A95EAF79091B802892719C03630E7
:1028F000A0F5F1CF222339F0892F8F710E941B257B
:102900002CC02223C9F3892F8F710E940F2525C067
:10291000222349F09F7181E001C0880F9A95EAF760
:102920000E9404251AC080E0FBCF222331F033231C
:1029300019F3802F0E94912510C0332321F389338E
:1029400049F4EFEFF7EE23E0E150F0402040E1F7EB
:1029500000C00000802F0E94592588EF8C0D843024
:1029600008F051C00E94842C4EC000314FE514077E
:1029700021F481E00E940F257ACD01315FE5150732
:1029800009F078CD82E0F6CF86E18C9DF0018D9D37
:10299000F00D1124EE5BFA4F86818130E1F48091D5
:1029A000260590912705892B09F474CD809128057F
:1029B00090912905892B09F46DCD80912A0590917C
:1029C0002B05892B09F066CD80912C0590912D0562
:1029D000892B59F05FCD823009F05CCD80912A05BA
:1029E00090912B05892B09F455CD26E12C9DC00132
:1029F0002D9D900D11248E5B9A4FDC0150961C92F8
:102A00000E94DF2C47CD29960FB6F894DEBF0FBE8B
:102A1000CDBFDF91CF911F910F91FF90EF90DF908D
:102A2000CF90BF90AF909F908F90089580E00895D1
:102A30009091D20192FF0DC0282F2871283019F4EF
:102A4000877F846006C0282F2471243011F48B7F87
:102A5000886093FF0DC0282F2871283119F4877ED4
:102A6000846106C0282F2471243111F48B7E886183
:102A70002091D30120FF0DC0382F3871383019F460
:102A8000877F816006C0382F3171313011F48E7F1D
:102A9000886021FF0DC0282F2871283119F4877E06
:102AA000816106C0282F2171213111F48E7E886149
:102AB00094FD877E0895AF92BF92CF92DF92EF92FE
:102AC000FF920F931F93CF93DF937C015B016A0109
:102AD00080919F028A3018F001E010E002C00AE005
:102AE00010E0C1E0D0E0F894B501C701F601099506
:102AF0007894811115C021960C171D0794F0CC9F76
:102B00009001CD9F300D300D112480E090E045E321
:102B10004A95F1F70000019682179307C1F7E3CFBA
:102B200081E0DF91CF911F910F91FF90EF90DF90A7
:102B3000CF90BF90AF9008957F928F929F92AF9267
:102B4000BF92CF92DF92EF92FF920F931F93CF939A
:102B5000DF931F92CDB7DEB7762E4A015901680187
:102B6000082F880F110BC8010E948C31892B09F0A6
:102B700071C08AE0809FF001819FF00D1124E95E11
:102B8000FE4F458150E04115510511F041E050E004
:102B90008AE0809FF001819FF00D1124E95EFE4FD5
:102BA0006681778161577D4FCE0101960E9458332F
:102BB000F40160817181828193810E94EC2B6436E3
:102BC00071058105910540F4B701C6010E94B72D3A
:102BD0009981891709F440C0072D770C110BC801A2
:102BE0000E948C31892B09F5E114F10401F18AE08E
:102BF000809FF001819FF00D1124E95EFE4F458119
:102C000050E0E416F50608F4A7018AE0809FF00181
:102C1000819FF00D1124E95EFE4F66817781615737
:102C20007D4FC5010E94583302C010E001C011E081
:102C3000B701C6010E94B72D91E02981281390E0C9
:102C4000192381F00E94172CF40160837183828321
:102C5000938308C010E001C011E0A701B601C501CF
:102C60000E945833812F0F90DF91CF911F910F91C8
:102C7000FF90EF90DF90CF90BF90AF909F908F909C
:102C80007F900895CF92DF92EF92FF920F931F9360
:102C9000CF93DF9300D000D01F92CDB7DEB76B018A
:102CA00085E0E82EF12C00E912E09E012F5F3F4FF6
:102CB00047E852E061E080E00E949C15882349F0DB
:102CC00095E0FE013196A2E8B2E001900D929A954E
:102CD000E1F795E0E2E8F2E0D60101900D929A95D5
:102CE000E1F70F900F900F900F900F90DF91CF9121
:102CF0001F910F91FF90EF90DF90CF9008958091FA
:102D00008102811118C08091D80080618093D80021
:102D10008AE18A95F1F700C08091D90080FD02C058
:102D200082E001C081E080938102823021F40E9420
:102D300046201092B70281E090918102913009F013
:102D400080E008950F931F93CF93DF9300D000D0BE
:102D5000CDB7DEB760919B0270919C0280919D027D
:102D600090919E020E94EC2B6436710581059105BD
:102D700008F443C00E947F16882319F00E94172C84
:102D80000EC00E94172C0091CE011091CF0120910E
:102D9000D0013091D101600F711F821F931FDC01A0
:102DA000CB010296A11DB11D89839A83AB83BC839D
:102DB000809142019091430181579D4F4091410183
:102DC00050E04530510510F044E050E0BE016F5F27
:102DD0007F4F0E94583384E090E00E948C31892B11
:102DE00011F080E00BC00E94172C60939B0270933F
:102DF0009C0280939D0290939E0281E00F900F9021
:102E00000F900F90DF91CF911F910F910895F8943B
:102E1000E82FE295EF70F0E031A1282F2F7081E0CC
:102E200090E001C0880F2A95EAF7982F9095932398
:102E300091A392A1892B82A378940895CF93DF93D5
:102E40008238910569F1B0F48133910509F46FC0BE
:102E500048F48932910509F465C08A32910509F474
:102E60006BC08AC08533910509F457C08933910539
:102E7000B9F082C0833E910571F138F4803E91052E
:102E8000B1F0823E910511F177C0863E9105B9F10E
:102E9000873E9105C9F1843E910509F06DC024C0BB
:102EA0002091D20120FD53C021FD51C065C0809109
:102EB000D20180FD46C08091D30180FF48C080913F
:102EC000D20184FD34C183EE90E033C18091D20100
:102ED00082FF3AC0F4CF8091D20182FD35C080914B
:102EE000D30180FD34C0EBCF8091D30181FF35C089
:102EF0008091D20184FD1BC187EE90E01AC18091C0
:102F0000D20183FF27C0F4CF8091D20183FD22C07C
:102F10008091D30181FD21C0EBCF8091D20185FD4D
:102F20001FC021C08091D20185FD1DC019C08091B4
:102F3000D20186FD1BC01DC08091D20186FD19C043
:102F400015C089E390E0F5C082EE90E0F2C080EE1B
:102F500090E0EFC086EE90E0ECC084EE90E0E9C037
:102F600089E290E0E6C085E390E0E3C08AE290E089
:102F7000E0C081E390E0DDC0811530E5930708F003
:102F800045C0811540E4940718F09F70906AD1C045
:102F90008F3B910520F5883A910558F0885AE82F23
:102FA000F0E0EE0FFF1FE457FE4F808191819464A3
:102FB000C0C0853A910548F0855AE82FF0E0E75700
:102FC000FE4F808190E09064B4C08430910508F099
:102FD000B0C0019709F0ABC081E090E0AAC08F3F7C
:102FE000910509F068F4803F910510F09065A1C04B
:102FF0009C01205E31092830310508F098C099C045
:10300000811520E2920708F494C091C0811534E53F
:10301000930708F059C0811543E59407A8F0AC0167
:103020004370552721E030E002C0220F331F4A953C
:10303000E2F7982F9695969540E2949FC00111244F
:10304000822B932B9A6875C0811522E59207A8F010
:10305000AC014370552721E030E002C0220F331F3E
:103060004A95E2F7982F9695969540E2949FC00175
:103070001124822B932B9C685CC0811531E593074A
:10308000F0F49C0154E0369527955A95E1F7922F7C
:103090009370482F437021E030E002C0220F331FAD
:1030A0004A95E2F73C68392B982F9F709695969534
:1030B00040E2949FC0011124822B932B3AC0982F99
:1030C0008827816F906A35C0EC0181154AE5940725
:1030D000F8F4C11589E5D80790F08C2F8F700E9405
:1030E000181594E0D695C7959A95E1F7CF70D0E082
:1030F000DC2FCC27D0699E01282BC9011AC0C1152D
:1031000028E5D207A0F09C2F8827806F906A11C015
:1031100090568115904258F48D2F8F710E9418158A
:10312000282F2F71CE0199279062922B02C080E048
:1031300090E0DF91CF9108950C94172CCF92DF92FD
:10314000EF92FF920F931F93CF93DF931F92CDB710
:10315000DEB7EE24E394F12C06E912E09E012F5F26
:103160003F4F4BE852E063E082E00E949C15C82E7E
:10317000882379F1D090E0018D2D90E09C012F51B2
:103180003E4F79011981F9018081181B012F80E0E0
:1031900010165CF40150F70180818F5F808360E03E
:1031A0008D2D0E944F2981E0F3CF912F17FD90E0E4
:1031B000191B112359F01F5FF70180818150808313
:1031C00061E08D2D0E944F2981E0F3CF81110E9493
:1031D0009C188C2D0F90DF91CF911F910F91FF9034
:1031E000EF90DF90CF9008956AEE7EEF80E090E060
:1031F0000E949D3260E082E090E00E947F3260E0B9
:1032000083E090E00E947F321092210560E084E02C
:1032100090E00E947F3260E082E290E00E947F3284
:1032200060E085E090E00E947F3260E086E090E020
:103230000E947F326FEF87E090E00E947F3240E093
:1032400050E0BA0188E090E00E94913260E08DE0A9
:1032500090E00E947F3240E050E0BA0188E190E0C7
:103260000E94913260E087E190E00E947F3240E06E
:1032700050E0BA018CE190E00E94913260E070E091
:1032800080E290E00E949D3240E050E0BA0188E187
:1032900090E00E94913280E00E94E8260E9406277A
:1032A00040E050E0BA018FE090E00E94913240E0AF
:1032B00050E0BA0183E190E00C94913280959091B6
:1032C000A10289238093A10208959091A102809187
:1032D0003F05892B90913902892B80933002E09130
:1032E0009C05F0919D05309731F00280F381E02D2F
:1032F00080E392E0099408958F929F92AF92BF92DB
:10330000CF92DF92EF92FF920F931F93CF93DF93B1
:10331000CDB7DEB72F970FB6F894DEBF0FBECDBF87
:103320009E012F5F3F4F79018AE0D9011D928A9556
:10333000E9F701E611E06901AA24A394B12CF80190
:1033400080818F3F09F441C0F894E82FE295EF7037
:10335000F0E021A18F70A50102C0440F551F8A958E
:10336000E2F7CA01922F982B91A392A1809589230D
:1033700082A3789400C0EBE6F1E0912C31E021913A
:103380002F3F89F0A22FA295AF70B0E090968C915C
:1033900090E02F7002C0959587952A95E2F780FD01
:1033A00002C0832F01C080E0982A330F51E0E1373B
:1033B000F50729F7D8018C918F3F11F00E9407176C
:1033C000B0EABA95F1F7F60190820F5F1F4FFFEF59
:1033D000CF1ADF0A21E00636120709F0B0CF4AE023
:1033E00050E0B70184ED91E00E944B338C01892BB2
:1033F00041F08AE0F701A4EDB1E001900D928A95C9
:10340000E1F7F090DF010115110549F081E08093AB
:103410003C020E94232C90933B0280933A028091BD
:103420003C028823B1F080913A0290913B020E94C5
:10343000082C059770F0A4EDB1E0EF2DF0E0EA5D07
:10344000FD4F8D91819331E0A93DB307D1F71092E3
:103450003C020115110509F0D5C10E947F16E091CB
:10346000DF01AE01455F5F4F7A01882309F472C125
:1034700085E0DA011D928A95E9F70E2F10E00A5DCA
:103480001D4F80919F028A3048F442E456E1B70113
:10349000C8010E945B15882371F10AC080913D022A
:1034A00090913E020E94082C843F914070F734C0F6
:1034B0004EE958E1B701C8010E945B158823D9F095
:1034C00042EA56E1B701C8010E945B15882399F0D2
:1034D00010929F028091DE0190E045E050E0B7013C
:1034E0008A5D9D4F0E944B3321E020938002892BFF
:1034F000F1F400E029C080919F028F3F19F08F5FA7
:1035000080939F0280919F028A3020F30E94232C97
:1035100090933E0280933D0280918002882349F37C
:1035200085E0F70111928A95E9F710928002A09147
:10353000DE01B0E0AA5DBD4F85E0FE013B96019043
:103540000D928A95E1F701E08091140190911501A7
:10355000019661F110E036E1932E1FC0989EF001B4
:10356000999EF00D1124EE5BFA4FC288D388C114E6
:10357000D10419F424E6C22ED12C989E5001999EB4
:10358000B00C112495012E5B3A4F7901D9011696A2
:103590008C911697811118C01F5F812F90E02091A8
:1035A00014013091150128173907C4F6C0904A025A
:1035B0000C2C000CDD08EE08FF0810911601212FDD
:1035C00030E0EBE4F2E012C01D968D919C911E97C5
:1035D0000E94082CC816D906F8F6C7010E94DF2CF5
:1035E000C501885B9A4F0E94942CD6CFCF018A5494
:1035F0009240281739075CF08191082E000C990B36
:10360000AA0BBB0BC80ED91EEA1EFB1EEFCFF7FE9E
:1036100003C0C12CD12C7601609146027091470203
:1036200080914802909149020E94EC2B4B015C0171
:10363000653671058105910504F18091450290E0A0
:10364000019662E370E00E94C73280934502FC015C
:10365000E65BFD4F1082113318F481E0810F01C049
:1036600081E3809316010E94172C609346027093A9
:1036700047028093480290934902E2E0CE16D104BB
:10368000E104F10474F1A0E6BAEEA70196010E94EC
:1036900029336B017C01F4E61F9F90011124C901BD
:1036A000330FAA0BBB0B9C01AD01280D391D4A1D20
:1036B0005B1DA5E0B0E00E9429339B01AC01C7016E
:1036C000B6010E94DB3269017A0121EFC216D104F2
:1036D000E104F10448F080EFC82ED12CE12CF12C4C
:1036E00003C0C12CD12C760160914102709142023D
:1036F00080914302909144020E94EC2B4B015C01AB
:10370000653671058105910584F00E94172C609340
:10371000410270934202809343029093440280914D
:10372000E60180934002C0923F0210914002A091B6
:103730003F02B0E0A11BB109A50194010E943433FE
:1037400024E630E040E050E00E94FD32210F20935B
:10375000E6015AC0F0E0EA5DFD4FF89485E0A0E98B
:10376000B2E001900D928A95E1F765E070E080E9A2
:1037700092E00E94B72D80938F027894F894E091A4
:10378000E401F0E0EF51FE4F80818B878093960239
:1037900061E070E0C7010E94B72D80939502789494
:1037A000F894C0909702D0909802E0909902F0901F
:1037B0009A0280917C0290917D02A0917E02B0914C
:1037C0007F02C816D906EA06FB06D1F0C0927C0239
:1037D000D0927D02E0927E02F0927F020E947F16DC
:1037E00081110EC00E94172CC61AD70AE80AF90ADE
:1037F000C092CE01D092CF01E092D001F092D101DF
:10380000789402C001E010E0802F2F960FB6F89454
:10381000DEBF0FBECDBFDF91CF911F910F91FF9003
:10382000EF90DF90CF90BF90AF909F908F900895D2
:10383000CF93DF93C091C204D091C3048A30B1F416
:103840002091B902CE018C5B9240622F70E00E9401
:103850004432281B822F66E00E94BB32C82FC15021
:1038600008F48FC080E20E94181CF9CF8D30E9F473
:10387000CC5BD2402091B902622F70E0CE010E9451
:103880004432281B822F9E01280F311D2115324002
:1038900018F080E0C0E0D0E0C80FD11DC454DD4F67
:1038A000D093C304C093C2046CC096E0FE01ACEB9D
:1038B000B4E001900D929A95E1F7803E30F086E0F9
:1038C000FE0111928A95E9F70BC0F6E08F9FB001D7
:1038D00011246C567A4F46E050E0CE010E945832D7
:1038E000C091C204D091C30446E050E0BE018CEB0D
:1038F00094E00E944B33892B49F19E012C5B3240AE
:10390000A90185E0569547958A95E1F781E090E019
:10391000BC0102C0660F771F4A95E2F74091BA02D8
:103920005091BB02462B572B2B5F3F4F65E03695DE
:1039300027956A95E1F702C0880F991F2A95E2F74B
:10394000842B952B9093BB028093BA029E01265B39
:1039500032404091B902642F70E0C9010E944432A4
:10396000481B463010F4240F311D211582E0380722
:1039700010F020E030E024543D4F3093C3042093F6
:10398000C204DF91CF910895CF93DF93EC01FE0144
:103990008491882321F00E94181C2196F8CFDF9192
:1039A000CF9108950F931F93CF93DF93EC01FC0108
:1039B00001900020E9F78F0101501109C017D107CC
:1039C00020F489910E94181CF9CFDF91CF911F91AB
:1039D0000F9108958091B802982F9670963011F447
:1039E000886001C0877F0C940425EF92FF920F93AB
:1039F0001F93CF93DF93EC017B0164E670E088E7CF
:103A00000E94192F8C01EC0EFD1ECE15DF0561F012
:103A100017FD0AC0FE01849164E670E00E949A2FAF
:103A20008C012196892B89F30E941E30C801DF91F9
:103A3000CF911F910F91FF90EF9008951F93CF9317
:103A4000DF93CDB7DEB7AA970FB6F894DEBF0FBEEF
:103A5000CDBFEFEAF2E087EB92E02091F1002193F5
:103A60008E179F07D1F78091B002833009F463C0AD
:103A700030F4813071F0823009F49FC0B6C08A30D2
:103A800009F48BC08B3009F46EC0893009F0ADC0E9
:103A900020C08091AF02813A09F0A7C08091E80070
:103AA000877F8093E8008091B3029091B402892BC4
:103AB00021F468E084EA92E003C060E080E090E0F6
:103AC00070E00E94572B8091E8008B778093E8008C
:103AD0008CC08091AF02813209F087C08091B3021F
:103AE0009091B402009719F0029709F07EC080917E
:103AF000E800877F8093E8008091E80082FD05C0A0
:103B00008091B7028111F8CF70C02091F3008091AD
:103B1000F20090E0922B029731F48091F100813015
:103B200011F0863021F48091F1008093A3028091FE
:103B3000E8008B7756C08091AF02813A09F055C0FA
:103B40008091B3029091B402892B09F04EC080910C
:103B5000E800877F8093E8008091E80080FFFCCF39
:103B60008091490139C08091AF028132F1F5809195
:103B7000B3029091B402892BC1F58091E800877F50
:103B80008093E8000E94032B8091B1028093490149
:103B90001092A1020E942A2528C08091AF02813292
:103BA00021F58091E800877F8093E8000E94032B35
:103BB0008091B2028093A20218C08091AF02813A34
:103BC000A1F48091E800877F8093E8008091E8006D
:103BD00080FFFCCF8091A2028093F1008091E800E9
:103BE0008E778093E8000E94032B8091E80083FF8A
:103BF000EBC18091AF029091B002492F50E04A3062
:103C0000510508F0E1C1FA01E059FF4F0C941C3353
:103C1000803821F0823809F0D7C108C08091AC0209
:103C20009091AD02992389F082600FC08091B30218
:103C30008F70873008F0C8C18093E9008091EB0055
:103C400085FB882780F91092E9009091E800977F22
:103C50009093E8008093F1001092F1007CC1282F2E
:103C60002D7F09F0B1C1882319F0823061F0ACC119
:103C70008091B102813009F0A7C1933009F080E052
:103C80008093AD022EC08091B10281112AC0809133
:103C9000B3028F702FEF280F263008F095C1809364
:103CA000E9002091EB0020FF1CC0933021F48091AB
:103CB000EB00806214C09091EB0090619093EB0058
:103CC00021E030E0A90102C0440F551F8A95E2F7B8
:103CD0004093EA001092EA008091EB0088608093A4
:103CE000EB001092E9008091E800877F8093E80064
:103CF0000E94032B69C1811167C11091B1021F7726
:103D00008091E3008078812B8093E3008091E8002C
:103D1000877F8093E8000E94032B8091E80080FF5A
:103D2000FCCF8091E30080688093E300111102C012
:103D300082E001C083E08093B70246C180588230A0
:103D400008F042C12091B1023091B2022C3D53E003
:103D5000350779F583E08A838AE289834FB7F8943F
:103D6000DE01139620E03EE051E2E32FF0E05093B5
:103D70005700E49120FF03C0E295EF703F5FEF70C2
:103D80008E2F90E0EA3010F0C79601C0C0968D9358
:103D90009D932F5F243149F74FBF8091E800877FC3
:103DA0008093E8006AE270E0CE0101960E94572BF2
:103DB000C0C08091B3029091B402432F5527433085
:103DC0005105B1F068F44130510509F40CC142309D
:103DD000510509F0F9C08BE590E0E3EEF4E057C03F
:103DE0004132510589F14232510509F43CC0ECC021
:103DF000C901992781309105B9F070F082309105A1
:103E0000D9F0039709F0E0C0E0E5F5E0E4918E2FEA
:103E100090E0E0E5F5E038C0E0E9F5E0E4918E2FD0
:103E200090E0E0E9F5E030C0EEE7F5E0E4918E2FB8
:103E300090E0EEE7F5E028C0EEE6F5E0E4918E2FA5
:103E400090E0EEE6F5E020C08330910508F0BCC0BC
:103E5000880F991FFC01EB53FE4F0190F081E02D7C
:103E600089E090E014C08330910508F0ADC0FC01FA
:103E7000EE0FFF1FE154FE4F0190F081E02DDC01B9
:103E8000A454BE4F8C9190E0009709F49DC02091FE
:103E9000E800277F2093E8002091B5023091B60218
:103EA0002817390708F4C90140E0009789F12091EB
:103EB000B702222309F43DC02530D9F12091E80052
:103EC00023FD37C02091E80022FD2FC02091E8009B
:103ED00020FFEBCF4091F3002091F20030E0342B33
:103EE000009759F02830310540F444914093F10097
:103EF000319601972F5F3F4FF3CF41E028303105D6
:103F000009F040E02091E8002E772093E800CDCF23
:103F10004111CDCF0AC08091B702882351F085307E
:103F200041F08091E80083FD04C08091E80082FFA9
:103F3000F2CF8091E8008B778093E80045C080380D
:103F400009F042C08091E800877F8093E80080916B
:103F5000AE028093F1008091E8008E77C7CE811188
:103F600033C08091B1029091B2029927029764F513
:103F70008091E800877F8093E8001091B102109350
:103F8000AE020E94032B111106C08091E30087FD51
:103F900002C081E001C084E08093B70242E061EC9E
:103FA00081E00E94222B42E261EC84E00E94222BFD
:103FB00042E261EC82E00E94222B42E260EC83E06C
:103FC0000E94222B8091B7028091E80083FF10C0ED
:103FD0008091E800877F8093E8008091EB00806209
:103FE0008093EB0005C082E190E0EEE3F5E04FCF77
:103FF000AA960FB6F894DEBF0FBECDBFDF91CF916A
:104000001F9108951F920F920FB60F9211242F93B4
:104010003F934F935F936F937F938F939F93AF9350
:10402000BF93CF93DF93EF93FF93C091E900CF70DD
:104030008091EC00D82FD17080FDD0E81092E9007B
:104040008091F000877F8093F00078940E941E1D7D
:104050001092E9008091F00088608093F000CD2BF1
:10406000CF70C093E900FF91EF91DF91CF91BF91A5
:10407000AF919F918F917F916F915F914F913F9100
:104080002F910F900FBE0F901F901895E8EDF0E064
:1040900080818E7F80831092E2001092DA0010926D
:1040A000E100A0EEB0E08C9181608C9380818F77ED
:1040B000808319BCA7EDB0E08C918E7F8C938081BA
:1040C0008F7E80831092A0020895CF92DF92EF92AC
:1040D000FF920F931F93CF93DF93C8EDD0E08881B9
:1040E0008F7E8883E7EDF0E080818160808384E0CB
:1040F00082BF81E08093A00288818E7F888302EE58
:1041000010E0F80110821092DA0081EEC82ED12C56
:10411000F601108288818F77888388818068888300
:1041200088818F7D888319BC1092B7021092AE02ED
:104130001092AD021092AC0290EEE92EF12CF70134
:1041400080818B7F808388818160888342E060E00A
:1041500080E00E94222BF60180818E7F8083F8010F
:10416000808181608083808188608083F701808185
:104170008E7F8083888180618883DF91CF911F91BA
:104180000F91FF90EF90DF90CF9008951F920F92C4
:104190000FB60F9211242F933F934F935F936F931A
:1041A0007F938F939F93AF93BF93EF93FF938091F0
:1041B000E10082FF09C08091E20082FF05C080918A
:1041C000E1008B7F8093E1008091DA0080FF2AC0BC
:1041D0008091D80080FF26C08091DA008E7F809386
:1041E000DA008091D90080FF18C080E189BD82E1AA
:1041F00089BD09B400FEFDCF81E08093B7028091B4
:10420000A00281110FC00E9446200E94652080916B
:10421000E20084608093E20005C019BC1092B702EE
:104220001092A0028091E10080FF17C08091E2000F
:1042300080FF13C08091E2008E7F8093E200809126
:10424000E20080618093E2008091D80080628093D8
:10425000D80019BC85E08093B7028091E10084FF0B
:1042600030C08091E20084FF2CC080E189BD82E1F2
:1042700089BD09B400FEFDCF8091D8008F7D809369
:10428000D8008091E1008F7E8093E1008091E20070
:104290008F7E8093E2008091E20081608093E20053
:1042A0008091AE02882311F084E007C08091E30082
:1042B00087FD02C081E001C083E08093B702809156
:1042C000B7028091E10083FF27C08091E20083FF65
:1042D00023C08091E100877F8093E10082E080939A
:1042E000B7021092AE028091E1008E7F8093E100D0
:1042F0008091E2008E7F8093E2008091E2008061F5
:104300008093E20042E060E080E00E94222B8091F6
:10431000F00088608093F000FF91EF91BF91AF9122
:104320009F918F917F916F915F914F913F912F91CD
:104330000F900FBE0F901F9018952091E4003091C0
:10434000E50095E64091EC00842F817040FF23C08A
:104350008091E80080FD1DC08091B702882399F00C
:10436000853099F08091EB0085FD11C04091E4000B
:104370005091E5002417350729F3915011F09A0167
:10438000E1CF84E0089582E0089583E0089581E01C
:10439000089580E008954091E80042FFDDCF089540
:1043A000EF92FF920F931F93CF93DF937C018B01CA
:1043B0000E949D21811119C0E70101151105A1F08D
:1043C0008091E80085FD0AC08091E8008E77809397
:1043D000E8000E949D21882381F307C08991809382
:1043E000F10001501109E9CF80E0DF91CF911F91D9
:1043F0000F91FF90EF900895CF932091B702243052
:10440000F9F4C091E900CF703091EC00232F2170B6
:1044100030FD20E8C22B22E02093E9002091E80043
:1044200020FF0BC040E050E060E270E00E94D0212D
:104430008091E8008E778093E800CF70C093E90008
:10444000CF91089580E090E00E946E2C80E090E093
:104450000E94582C10923F05109239020E94651953
:10446000EBE1F5E086E0DF011D928A95E9F7109215
:10447000150510921405109216050C94582A809177
:1044800013059091E204891719F08F5F8770FBCFB5
:1044900008950F931F93CF93DF938091E10482954A
:1044A0008F7009F05DC08091DE04882309F458C044
:1044B000809113051091E2046091DC047091DD0499
:1044C000C091DF04D091E00491E06F3F09F090E0EB
:1044D000292F06E0811709F443C0209721F07F3F80
:1044E00021F030E003C031E001C0322F90E030FD18
:1044F00034C0089FF001099FF00D1124DF01AD5178
:10450000BB4F11963C911197371327C03C9136133E
:1045100024C012963C91129731111FC013964D91F1
:104520005C9114974C1B5D0B44365105B0F480919F
:10453000E1048F7080618093E104E851FB4F80813A
:104540008F70806180838CED94E00E94E710DF9192
:10455000CF911F910F910C943F2201968770BACF93
:10456000DF91CF911F910F910895CF92DF92FF922B
:104570000F931F93CF93DF936C010091B80280914A
:104580002105082BC7E0D0E010E0C8010C2E02C0C6
:10459000959587950A94E2F780FD04C02197A8F7C6
:1045A000F12C09C0FC2EB6018C2F0E94DE2D0E943A
:1045B0001E17019799F38F2DDF91CF911F910F91C6
:1045C000FF90DF90CF900895CF93DF93EC010E948E
:1045D000B522BE010E94DE2D0E941E17DF91CF91F1
:1045E0000895FC01808191810E94E422292F2F707F
:1045F000E92FE295EF704E2F50E0FA013297EE303E
:10460000F105B8F4E658FF4F0C941C33803F99F045
:1046100018F4883E70F40FC0843F59F40CC0883EF3
:1046200050F0813F31F407C0822F8695869586959C
:10463000089580E0089581E008959F92AF92BF921F
:10464000CF92DF92EF92FF920F931F93CF93DF935E
:10465000CDB7DEB761970FB6F894DEBF0FBECDBF02
:104660008C0185E0F801DE011D9601900D928A957E
:10467000E1F7F801E2809091DC046091DD04409163
:10468000DF045091E0044115510531F06F3F31F4E2
:1046900081E09F3F19F403C081E001C080E0F82F62
:1046A000F1709F2E80FD02C1F80130812181C3800D
:1046B000D4808CEDA82E84E0B82EF090DE04F601B4
:1046C000E41BF50BFF2009F4CAC08091E104E43635
:1046D000F10508F095C0482F407F09F050C06213E3
:1046E00011C093130FC0FE2CE1100CC08F708061BD
:1046F0008093E104C5010E94E7108091E104F80174
:10470000858311C1CD2831F02F3F31F481E03F3F47
:1047100019F403C081E001C080E080FD03C081E0A6
:104720008E2502C080E090E0F82FF170FF2E80FF10
:104730001CC0809113054091E20456E0841709F4EF
:10474000D0C090E0589FF001599FF00D1124ED5119
:10475000FB4F6181261306C06081631303C0628131
:10476000E61203C001968770E9CFFE2CEE2009F413
:10477000DAC08091E10481608093E1044DC062134E
:104780000AC0931308C0E11006C0F8018583C80170
:104790000E94E7106EC0C8010E94F122882351F1E7
:1047A000EE2041F12091E104822F82958F7090E0FC
:1047B000029774F08091DC049091DD0498878F83D8
:1047C0001986DB86CA862C87CE0107960E94E710E1
:1047D00086E0F801ACEDB4E001900D928A95E1F726
:1047E0000E9449220AC06217C9F0C8010E94F12242
:1047F00081111EC0C8010E94E710FF24F39493C0EA
:10480000482F407F81F78CED94E00E94E71086E00E
:10481000F50111928A95E9F7F12C85C09313E5CF44
:10482000E110E3CFF8018583C8010E94E71038C08A
:10483000EE2001F32091E104822F82958F7090E0A9
:10484000029734F28091DC049091DD049A8389838D
:104850001B82DD82CC822E83CE010196B7CFE43657
:10486000F105F0F4FE2CEE2029F262130BC0931335
:1048700009C086E0F801ACEDB4E001900D928A9594
:10488000E1F751C0C8010E94F1228111A1CF8091AE
:10489000E10481608093E104C8010E94E71043C0F5
:1048A00086E0F50111928A95E9F73DC0EE2009F402
:1048B000A1CFC8010E94F122F82E882309F49ACFD3
:1048C00086E0F801ACEDB4E001900D928A95E1F735
:1048D0008091DC049091DD040E94E4220E94492230
:1048E00022C03D872E878D859E850E94E422292F38
:1048F00022952F70223028F49F7039F0811105C065
:104900000BC0243028F49F7049F4805E883020F07A
:10491000C8010E94E7109F2CF92C05C0F801958171
:10492000907F99F7F9CF8F2D61960FB6F894DEBF7F
:104930000FBECDBFDF91CF911F910F91FF90EF90F0
:10494000DF90CF90BF90AF909F9008959E3F61F110
:10495000292F220F920F990F980F692F6695669550
:104960006695977083E0689FB001112440E050E0A5
:1049700080E0FB01E40FF51FEC53FB4F208130E09A
:10498000092E02C0369527950A94E2F72170332745
:10499000042E01C0220F0A94EAF7822B4F5F5F4F6B
:1049A0004330510531F7089580E008959E3F59F155
:1049B000292F220F920F990F980FE92FE695E69570
:1049C000E695977051E001C0550F9A95EAF783E09C
:1049D000E89FF0011124EC53FB4F20E030E070E041
:1049E0004081CB01022E02C0969587950A94E2F78A
:1049F0008170819584278523842781932F5F3F4F82
:104A00002330310569F70895982F9670963011F488
:104A1000886001C0877F8093B8020C94222221E035
:104A200030E001C0220F8A95EAF720958091B80204
:104A300082230C94042521E030E001C0220F8A95E6
:104A4000EAF78091B802822B0C940425809321050B
:104A50000C94222286E0E2E3F2E0DF011D928A95C7
:104A6000E9F70C942222882341F0809590913F052C
:104A7000892380933F050C9465190895882339F0A4
:104A800090913F05892B80933F050C9465190895FB
:104A9000882321F00E945E190C94651908958823DB
:104AA00039F09091A102892B8093A1020C94651991
:104AB00008958823A9F19CEF980F913A60F4E0E300
:104AC000F2E09281891301C01282319692E0E633BE
:104AD000F907B9F70DC090E2980F983058F4877035
:104AE00091E001C0990F8A95EAF7892F0E945E191B
:104AF0000C9465199BE5980F933020F480E090E0CA
:104B00000C946E2C98E5980F973120F480E090E09B
:104B10000C94582C803F20F00E942E270C94582A89
:104B200008950F931F93CF93882309F475C0C82F5E
:104B30008CEF8C0F813A50F502E312E088E392E0AB
:104B4000F8012191C21721F08E179F07D1F70EC0EF
:104B5000E0E3F2E086E392E02281C21301C0128218
:104B600031968E179F07C1F70E946519EFEF80E01D
:104B7000D8019D918D01C917C9F0EF3F19F491112A
:104B800001C0E82F8F5F863099F73DC080E28C0F1F
:104B9000883088F4C77081E090E001C0880FCA9522
:104BA000EAF79091A102892B8093A102CF911F91E6
:104BB0000F910C946519EBE5EC0FE33050F4F0E045
:104BC000E757FE4F808190E0CF911F910F910C9499
:104BD0006E2CE8E5EC0FE73160F4F0E0EE0FFF1F1C
:104BE000E457FE4F80819181CF911F910F910C94DA
:104BF000582CC03F88F08C2F0E94F527CF911F9131
:104C00000F910C94582AEF3F89F20E2E000CFF0BE7
:104C1000E05DFD4FC283CACFCF911F910F910895E0
:104C20001F93CF93DF93182F893319F0C0E0D0E0A2
:104C300002C0C0E5D0E0812F0E949125209741F06D
:104C40008FE99FE00197F1F700C000002197F6CFB0
:104C5000812FDF91CF911F910C9459250F931F93B2
:104C6000CF93DF93833058F56A3048F5463038F5F6
:104C700021159CE5390731F4E0913005F0913105BB
:104C8000EF2BE9F08901C42FD0E0CC0FDD1F9CE0B1
:104C9000699FC00DD11D112498E7899FC00DD11DBA
:104CA0001124612FCE0187960E947F32602FCE01A2
:104CB0008896DF91CF911F910F910C947F32DF91F5
:104CC000CF911F910F9108950F931F93CF93DF936F
:104CD000833008F56A30F8F44630E8F4C42FD0E0A9
:104CE000CC0FDD1F2CE0629FC00DD11D112438E7D1
:104CF000839FC00DD11D1124CE0187960E94713271
:104D000090E0182F0027CE0188960E9471329801FA
:104D1000282BC90102C080E090E0DF91CF911F9164
:104D20000F9108958F929F92AF92BF92CF92DF9290
:104D3000EF92FF920F931F93CF93DF93CDB7DEB720
:104D40002A970FB6F894DEBF0FBECDBF02E415E080
:104D5000E12CF12C8DEAC82E89E2D82E98EDA92EEF
:104D600099E2B92E20EB822E28E2922EF801D18210
:104D7000C082B382A28295828482F58AE48ABE01CF
:104D80006F5F7F4F8E2D0E94FA2D892B29F4898524
:104D90009A85F801938B828BFFEFEF1AFF0A0A5E68
:104DA0001F4F84E0E816F10409F72A960FB6F8942D
:104DB000DEBF0FBECDBFDF91CF911F910F91FF904E
:104DC000EF90DF90CF90BF90AF909F908F9008951D
:104DD000CF93C82F811102C06FEF01C062EC83E254
:104DE00090E00E947F32C11102C06FEF01C060E706
:104DF00084E290E00E947F32C11102C06FEF01C0D7
:104E00006CE285E290E0CF910C947F3280E00E94CA
:104E1000E82660E086E290E00E947F320E94472E02
:104E20000E94CE2D81E00C94E82683E290E00E945F
:104E30007132823C81F484E290E00E9471328037CA
:104E400051F485E290E00E94713291E08C3209F0D9
:104E500090E0892F01C080E081700895803F39F48F
:104E600080911E0587FF6AC010921E0567C0813FB2
:104E700029F480911E051816BCF360C090911D05A1
:104E8000823F29F497FF5AC010921D0557C0833FF7
:104E900019F41916CCF352C090911F05893F31F4D3
:104EA00019160CF04BC010921F0548C08A3F19F428
:104EB00097FF44C0F8CF8B3F39F48091200587FFDE
:104EC0003DC0109220053AC08C3F29F48091200506
:104ED0001816BCF333C0843F21F480911C058E7FEB
:104EE00017C0853F21F480911C058D7F11C0863F3E
:104EF00021F480911C058B7F0BC0873F21F48091AA
:104F00001C05877F05C0883F31F480911C058F7E8A
:104F100080931C0513C08D3F21F4809116058E7F70
:104F20000BC08E3F21F4809116058D7F05C08F3F09
:104F300029F4809116058B7F8093160580911D05BD
:104F4000811106C080911E05811102C010921505C5
:104F500080911F05811106C080912005811102C03A
:104F60001092140508958091160580FD16C081FDEC
:104F700016C082FD18C080911405882391F08832F4
:104F800090F428E0829FC001112468E270E00E9442
:104F9000C732862F672B29F007C082E0089584E08E
:104FA000089581E0089588E008958091160580FDB8
:104FB00014C081FD14C082FD16C0809115058823A0
:104FC00081F0843180F422E3829FC001112464E1E6
:104FD00070E00E94C732862F08958CE0089589E121
:104FE000089585E0089582E30895803F21F40E94AA
:104FF000D527819504C0813F29F40E94D52780934D
:105000001E050895823F21F40E94D527819504C092
:10501000833F29F40E94D52780931D050895893F79
:1050200019F40E94B32705C08A3F31F40E94B327C8
:10503000819580931F0508958B3F21F40E94B3272B
:10504000819504C08C3F29F40E94B32780932005EA
:105050000895843F21F480911C05816017C0853F2D
:1050600021F480911C05826011C0863F21F480915B
:105070001C0584600BC0873F21F480911C0588606B
:1050800005C0883F31F480911C05806180931C0528
:1050900008958D3F21F48091160581600BC08E3FED
:1050A00021F480911605826005C08F3F29F480911C
:1050B000160584608093160508950F931F93CF9370
:1050C000DF9300D000D01F92CDB7DEB78C01909354
:1050D000330580933205011580E2180738F5802FDB
:1050E0000E945925C801805E9109089718F00115A2
:1050F000110571F4C8010E94BA100F900F900F9023
:105100000F900F90DF91CF911F910F910C94482534
:10511000C8010E94BA100F900F900F900F900F903F
:10512000DF91CF911F910F910C9433258EEF8983DE
:105130008A831B820E94232C8160782F9D838C831D
:1051400049815A816B818D810E94FC0F0F900F90D5
:105150000F900F900F90DF91CF911F910F910895B5
:105160000F931F93CF93DF938C01EB0166E275E001
:105170008C2F0E94FA2D892B09F040C0DD27CE5DCF
:10518000DA4F8881F80110821882833079F048F470
:10519000813041F1823091F5809128059091290567
:1051A00009C0843051F08530E9F028C080912A058B
:1051B00090912B050097B1F01BC080912C05909128
:1051C0002D050097A9F4209126053091270580919F
:1051D0002805909129052115310541F0009741F4EA
:1051E000C90106C08091260590912705009731F0EE
:1051F000DF91CF911F910F910C945D28DF91CF919A
:105200001F910F9108950F931F93CF93DF9300D0B9
:1052100000D01F92CDB7DEB78C01909333058093F9
:105220003205011580E21807F8F4C801805E910983
:10523000089718F00115110531F4C8010E94BA1041
:105240000E944F2505C0C8010E94BA100E943E2549
:10525000802F0F900F900F900F900F90DF91CF91B4
:105260001F910F910C9491258EEF89838A8381E0A1
:105270008B830E94232C8160782F9D838C834981AE
:105280005A816B818D810E94FC0F0F900F900F90BF
:105290000F900F90DF91CF911F910F910895AF92D2
:1052A000BF92CF92DF92EF92FF920F931F93CF9313
:1052B000DF93B82EA62EC090B80280912105C82A8F
:1052C000C7E0D0E0D12CE12CF12CD701C6010C2E87
:1052D00004C0B695A795979587950A94D2F780FF55
:1052E00013C04A2D6B2D8C2F0E94E32E8C01813030
:1052F000910551F00E9403298FE39CE90197F1F792
:1053000000C00000C80111C02197F8F64A2D6B2D8E
:1053100080E00E94E32EEC010E9403298FE39CE9C8
:105320000197F1F700C00000CE010E945D2881E0E6
:10533000DF91CF911F910F91FF90EF90DF90CF9071
:10534000BF90AF900895CF93DF93EC010E940329A3
:10535000CE01DF91CF910C945D280F931F93CF93D3
:10536000DF938C01862F66E275E00E94FA2D892B6F
:10537000D1F4C0912605D09127052097A1F0F8011E
:105380008081833039F4CE010E94A329CE010E948E
:10539000A32902C0843038F0CE01DF91CF911F9154
:1053A0000F910C94A329DF91CF911F910F91089534
:1053B0000F931F93CF93DF938C01EB0166E275E0AF
:1053C0008C2F0E94FA2D892B09F06DC0DD27F80182
:1053D0008081813041F49185911115C09285992386
:1053E00091F082E010C0823049F4F801818581118A
:1053F00007C08285811106C083E005C086E003C036
:1054000085E001C084E0CE5DDA4F88838330B1F05F
:1054100028F4813071F0823031F045C08430A9F039
:10542000853079F140C08091280590912905009739
:10543000A1F5809126059091270520C080912A052D
:1054400090912B050097E9F028C080912C05909150
:105450002D05009711F5809126059091270500975D
:1054600049F00E94A3298091280590912905009771
:1054700081F013C08091280590912905009799F03B
:105480000CC08091260590912705009761F00E943D
:10549000A3298091260590912705DF91CF911F9137
:1054A0000F910C940329DF91CF911F910F910895D3
:1054B0000E94232C20911D05211104C020911E055E
:1054C000222321F090931A058093190520911F053E
:1054D000211104C020912005222321F0909318056A
:1054E00080931705E0919C05F0919D05309749F058
:1054F00082E080931B050480F581E02D8BE195E02F
:105500000994089508958091A30208958093A505B4
:105510007093A7056093A6058091B7028430F9F4D3
:105520008093E9008FEF9091E800815095FD06C0CF
:1055300095ED9A95F1F700008111F5CF8091E80083
:1055400085FF0DC040E050E063E070E085EA95E043
:105550000E94D0218091E8008E778093E800089522
:10556000BC0184E00C94862ABC0183E00C94862A5A
:1055700024E02093E9002FEF3091E800215035FD21
:1055800006C035ED3A95F1F700002111F5CF2091D5
:10559000E80025FF0BC040E050E066E070E00E94AC
:1055A000D0218091E8008E778093E8000895CF9312
:1055B000DF9321E02093E9002FEF3091E8002150A4
:1055C00035FD06C035ED3A95F1F700002111F5CF14
:1055D0002091E80025FF14C0EC0140E050E068E0B5
:1055E00070E00E94D0218091E8008E778093E800DF
:1055F00088E0FE01A4EAB2E001900D928A95E1F7FD
:10560000DF91CF9108958091AF0287FF11C0809103
:10561000E80082FD05C08091B7028111F8CF11C06A
:105620008091E8008B770BC08091B702882349F006
:105630008091E80080FFF8CF8091E8008E7780931A
:10564000E8000895982F973068F59093E90098172F
:1056500039F07091EC002091ED005091F00003C002
:10566000242F762F50E021FD02C09F5FECCF3091B8
:10567000EB003E7F3093EB003091ED003D7F3093A7
:10568000ED003091EB0031603093EB007093EC0053
:105690002093ED005093F0002091EE0027FDE5CF20
:1056A00080E008958F708093E90081E00895209153
:1056B000B5023091B6022617370748F0611571051B
:1056C00039F42091E8002E772093E80001C0B90159
:1056D000FC0120E06115710579F18091B702882302
:1056E000F1F18530F1F18091E80083FD3CC08091BB
:1056F000E80082FD2EC08091E80080FFEBCF209172
:10570000F3008091F20090E0922B6115710551F049
:105710008830910538F421912093F100615071098E
:105720000196F3CF21E0089709F020E08091E8008E
:105730008E778093E800CECF2111CFCF0AC0809121
:10574000B702882361F0853061F08091E80083FD25
:105750000AC08091E80082FFF2CF80E0089582E0E5
:10576000089583E0089581E0089587E797E790938F
:105770000108809300089AE088E10FB6F894A89594
:10578000809360000FBE90936000FFCF78941F92CB
:105790000F920FB60F9211248F939F93AF93BF93E5
:1057A0008091A1059091A205A091A305B091A405B7
:1057B0000196A11DB11D8093A1059093A205A09310
:1057C000A305B093A405BF91AF919F918F910F90C6
:1057D0000FBE0F901F901895CF92DF92EF92FF921D
:1057E0002FB7F894C090A105D090A205E090A30532
:1057F000F090A4052FBFA7019601261B370B480B7D
:10580000590BCA01B901FF90EF90DF90CF90089536
:105810009C014FB7F8948091A1059091A205A091A9
:10582000A305B091A4054FBF821B930B08952FB71A
:10583000F8946091A1057091A2058091A3059091C3
:10584000A4052FBF08952FB7F8948091A1059091DA
:10585000A205A091A305B091A4052FBF08951F92A2
:105860000F920FB60F9211248F939F93AF93BF9314
:105870008091A005811113C08091A1059091A2058E
:10588000A091A305B091A4054196A11DB11D8093DF
:10589000A1059093A205A093A305B093A405BF9181
:1058A000AF919F918F910F900FBE0F901F90189501
:1058B00020919E0530919F052817390771F090932C
:1058C0009F0580939E05E0919C05F0919D05309782
:1058D00021F00084F185E02D0994089520919A0526
:1058E00030919B052817390771F090939B058093A1
:1058F0009A05E0919C05F0919D05309721F0068076
:10590000F781E02D099408950E947F16882351F0B5
:10591000E0919C05F0919D05309721F00190F08178
:10592000E02D099480E00895EF92FF920F931F936A
:10593000CF93DF93FC01228521113AC0EC01E38073
:10594000F480F7E5FF1A26E12E9DC0012F9D900DF2
:105950001124DC01AE5BBA4F1496ED91FC911597C2
:10596000885B9A4F309729F054966D917C915597AA
:10597000099586E18E9D80018F9D100D11240E5B8F
:105980001A4FF80187810E945E19F8018085809581
:1059900090913F05892380933F050E9465191882E5
:1059A00019861B861E821D821092410510924005A9
:1059B000DF91CF911F910F91FF90EF900895CF93BA
:1059C000DF93FC01218921111CC0EC0181E0818B56
:1059D0009091A1028781892B8093A10290913F052C
:1059E0008085892B80933F050E946519EA81FB81A0
:1059F000CE010696309729F06C897D89DF91CF9191
:105A00000994DF91CF9108950F931F93CF93DF9364
:105A1000C42FD22FFC0182818823C9F040933E0518
:105A20000E94232C90933D0580933C0580E28C0FCF
:105A3000883008F057C0C77081E001C0880FCA9550
:105A4000EAF7DF91CF911F910F910C944F25809130
:105A50003E05481330C080913C0590913D050E9461
:105A6000082C8436910538F510E21D0FCD17B9F0DA
:105A700080E28C0F883040F4C77081E001C0880F4D
:105A8000CA95EAF70E944825183028F581E09D2F35
:105A9000977001C0880F9A95EAF70E944F25802FD2
:105AA0000E9410261830F0F4D77081E001C0880FF2
:105AB000DA95EAF70AC080E28C0F883098F4C77054
:105AC00081E001C0880FCA95EAF7DF91CF911F915D
:105AD0000F910C944825802FDF91CF911F910F914A
